{
  "contractName": "Faucet",
  "abi": [
    {
      "inputs": [],
      "name": "numOfFunders",
      "outputs": [
        {
          "internalType": "uint256",
          "name": "",
          "type": "uint256"
        }
      ],
      "stateMutability": "view",
      "type": "function",
      "constant": true
    },
    {
      "inputs": [],
      "name": "test3",
      "outputs": [
        {
          "internalType": "bytes32",
          "name": "",
          "type": "bytes32"
        }
      ],
      "stateMutability": "pure",
      "type": "function",
      "constant": true
    },
    {
      "stateMutability": "payable",
      "type": "receive",
      "payable": true
    },
    {
      "inputs": [],
      "name": "addFunds",
      "outputs": [],
      "stateMutability": "payable",
      "type": "function",
      "payable": true
    },
    {
      "inputs": [
        {
          "internalType": "uint256",
          "name": "withdrawAmount",
          "type": "uint256"
        }
      ],
      "name": "withdraw",
      "outputs": [],
      "stateMutability": "nonpayable",
      "type": "function"
    },
    {
      "inputs": [],
      "name": "test1",
      "outputs": [],
      "stateMutability": "nonpayable",
      "type": "function"
    },
    {
      "inputs": [],
      "name": "emitLog",
      "outputs": [
        {
          "internalType": "bytes32",
          "name": "",
          "type": "bytes32"
        }
      ],
      "stateMutability": "pure",
      "type": "function",
      "constant": true
    },
    {
      "inputs": [],
      "name": "getAllFunders",
      "outputs": [
        {
          "internalType": "address[]",
          "name": "",
          "type": "address[]"
        }
      ],
      "stateMutability": "view",
      "type": "function",
      "constant": true
    },
    {
      "inputs": [
        {
          "internalType": "uint8",
          "name": "index",
          "type": "uint8"
        }
      ],
      "name": "getFunderAtIndex",
      "outputs": [
        {
          "internalType": "address",
          "name": "",
          "type": "address"
        }
      ],
      "stateMutability": "view",
      "type": "function",
      "constant": true
    }
  ],
  "bytecode": "0x608060405234801561001057600080fd5b50336000806101000a81548173ffffffffffffffffffffffffffffffffffffffff021916908373ffffffffffffffffffffffffffffffffffffffff1602179055506064600181905550610a20806100686000396000f3fe60806040526004361061007f5760003560e01c80636fbbb55d1161004e5780636fbbb55d14610133578063a26759cb1461015e578063af7f2c9b14610168578063f42c13bf1461019357610086565b80630a8e8e011461008b5780630a93cf33146100b65780632e1a7d4d146100f35780636b59084d1461011c57610086565b3661008657005b600080fd5b34801561009757600080fd5b506100a06101be565b6040516100ad91906105b7565b60405180910390f35b3480156100c257600080fd5b506100dd60048036038101906100d89190610610565b6101e6565b6040516100ea919061067e565b60405180910390f35b3480156100ff57600080fd5b5061011a600480360381019061011591906106cf565b610226565b005b34801561012857600080fd5b506101316102bd565b005b34801561013f57600080fd5b5061014861034d565b60405161015591906107ba565b60405180910390f35b610166610447565b005b34801561017457600080fd5b5061017d610567565b60405161018a91906107eb565b60405180910390f35b34801561019f57600080fd5b506101a861056d565b6040516101b591906105b7565b60405180910390f35b60007f7465737433205472696767657265642100000000000000000000000000000000905090565b6000600460008360ff16815260200190815260200160002060009054906101000a900473ffffffffffffffffffffffffffffffffffffffff169050919050565b80670de0b6b3a7640000811115610272576040517f08c379a000000000000000000000000000000000000000000000000000000000815260040161026990610863565b60405180910390fd5b3373ffffffffffffffffffffffffffffffffffffffff166108fc839081150290604051600060405180830381858888f193505050501580156102b8573d6000803e3d6000fd5b505050565b60008054906101000a900473ffffffffffffffffffffffffffffffffffffffff1673ffffffffffffffffffffffffffffffffffffffff163373ffffffffffffffffffffffffffffffffffffffff161461034b576040517f08c379a0000000000000000000000000000000000000000000000000000000008152600401610342906108f5565b60405180910390fd5b565b6060600060025467ffffffffffffffff81111561036d5761036c610915565b5b60405190808252806020026020018201604052801561039b5781602001602082028036833780820191505090505b50905060005b60025481101561043f576004600082815260200190815260200160002060009054906101000a900473ffffffffffffffffffffffffffffffffffffffff168282815181106103f2576103f1610944565b5b602002602001019073ffffffffffffffffffffffffffffffffffffffff16908173ffffffffffffffffffffffffffffffffffffffff16815250508080610437906109a2565b9150506103a1565b508091505090565b6000339050600360008273ffffffffffffffffffffffffffffffffffffffff1673ffffffffffffffffffffffffffffffffffffffff16815260200190815260200160002060009054906101000a900460ff16610564576000600260008154809291906104b2906109a2565b9190505590506001600360008473ffffffffffffffffffffffffffffffffffffffff1673ffffffffffffffffffffffffffffffffffffffff16815260200190815260200160002060006101000a81548160ff021916908315150217905550816004600083815260200190815260200160002060006101000a81548173ffffffffffffffffffffffffffffffffffffffff021916908373ffffffffffffffffffffffffffffffffffffffff160217905550505b50565b60025481565b60006105776101be565b507f656d69744c6f6720547269676765726564000000000000000000000000000000905090565b6000819050919050565b6105b18161059e565b82525050565b60006020820190506105cc60008301846105a8565b92915050565b600080fd5b600060ff82169050919050565b6105ed816105d7565b81146105f857600080fd5b50565b60008135905061060a816105e4565b92915050565b600060208284031215610626576106256105d2565b5b6000610634848285016105fb565b91505092915050565b600073ffffffffffffffffffffffffffffffffffffffff82169050919050565b60006106688261063d565b9050919050565b6106788161065d565b82525050565b6000602082019050610693600083018461066f565b92915050565b6000819050919050565b6106ac81610699565b81146106b757600080fd5b50565b6000813590506106c9816106a3565b92915050565b6000602082840312156106e5576106e46105d2565b5b60006106f3848285016106ba565b91505092915050565b600081519050919050565b600082825260208201905092915050565b6000819050602082019050919050565b6107318161065d565b82525050565b60006107438383610728565b60208301905092915050565b6000602082019050919050565b6000610767826106fc565b6107718185610707565b935061077c83610718565b8060005b838110156107ad5781516107948882610737565b975061079f8361074f565b925050600181019050610780565b5085935050505092915050565b600060208201905081810360008301526107d4818461075c565b905092915050565b6107e581610699565b82525050565b600060208201905061080060008301846107dc565b92915050565b600082825260208201905092915050565b7f43616e6e6f742077697468726177206d6f7265207468616e2031206574686572600082015250565b600061084d602083610806565b915061085882610817565b602082019050919050565b6000602082019050818103600083015261087c81610840565b9050919050565b7f4f6e6c79206f776e65722063616e2063616c6c20746869732066756e6374696f60008201527f6e2e000000000000000000000000000000000000000000000000000000000000602082015250565b60006108df602283610806565b91506108ea82610883565b604082019050919050565b6000602082019050818103600083015261090e816108d2565b9050919050565b7f4e487b7100000000000000000000000000000000000000000000000000000000600052604160045260246000fd5b7f4e487b7100000000000000000000000000000000000000000000000000000000600052603260045260246000fd5b7f4e487b7100000000000000000000000000000000000000000000000000000000600052601160045260246000fd5b60006109ad82610699565b91507fffffffffffffffffffffffffffffffffffffffffffffffffffffffffffffffff82036109df576109de610973565b5b60018201905091905056fea2646970667358221220d164e7be80ee36a30b557a02b7ad44f7f1990059b5ff0f3ac6982423a07d052564736f6c634300080f0033",
  "immutableReferences": {},
  "source": "// SPDX-License-Identifier: MIT\r\npragma solidity >=0.4.22 <0.9.0;\r\nimport \"./Owned.sol\";\r\nimport \"./Logger.sol\";\r\nimport \"./IFaucet.sol\";\r\n\r\ncontract Faucet is Owned, Logger, IFaucet {\r\n    uint256 public numOfFunders;\r\n    mapping(address => bool) private funders;\r\n    mapping(uint256 => address) private lutFunders;\r\n\r\n    modifier limitWithdraw(uint256 withdrawAmount) {\r\n        require(\r\n            withdrawAmount <= 1000000000000000000,\r\n            \"Cannot withraw more than 1 ether\"\r\n        );\r\n        _;\r\n    }\r\n\r\n    receive() external payable {}\r\n\r\n    function addFunds() external override payable {\r\n        address funder = msg.sender;\r\n\r\n        if (!funders[funder]) {\r\n            uint256 index = numOfFunders++;\r\n            funders[funder] = true;\r\n            lutFunders[index] = funder;\r\n        }\r\n    }\r\n\r\n    function withdraw(uint256 withdrawAmount) external override limitWithdraw(withdrawAmount) {\r\n        payable(msg.sender).transfer(withdrawAmount);\r\n    }\r\n\r\n    // only owner can access this\r\n    function test1() external onlyOwner{}\r\n\r\n    function emitLog() public override pure returns(bytes32) {\r\n        test3();\r\n        return \"emitLog Triggered\";\r\n    }\r\n\r\n    function getAllFunders() public view returns (address[] memory) {\r\n        address[] memory _funders = new address[](numOfFunders);\r\n\r\n        for (uint256 i = 0; i < numOfFunders; i++) {\r\n            _funders[i] = lutFunders[i];\r\n        }\r\n\r\n        return _funders;\r\n    }\r\n\r\n    // function justTesting() external pure returns(uint) {\r\n    //     return 5 + 5;\r\n    // }\r\n\r\n    function getFunderAtIndex(uint8 index) public view returns (address) {\r\n        return lutFunders[index];\r\n    }\r\n\r\n    // truffle migrate --reset\r\n    // truffle console\r\n\r\n    // const instance = await Faucet.deployed()\r\n    // instance.addFunds({from: accounts[0], value: \"2000000000000000000\"})\r\n    // instance.addFunds({from: accounts[1], value: \"2000000000000000000\"})\r\n    // instance.getAllFunders()\r\n    // instance.getFunderAtIndex(0)\r\n    // instance.withdraw(\"500000000000000000\", {from: accounts[1]})\r\n    // instance.withdraw(\"5000000000000000000\", {from: accounts[1]})\r\n    // instance.test1()\r\n    // instance.test1({from: accounts[5]})\r\n    // instance.emitLog()\r\n}\r\n",
  "sourcePath": "D:\\Edu\\IIT\\Y5\\FYP\\Blockchain\\Practice\\faucet\\contracts\\FaucetContract.sol",
  "compiler": {
    "name": "solc",
    "version": "0.8.15+commit.e14f2714.Emscripten.clang"
  },
  "schemaVersion": "3.4.8",
  "updatedAt": "2022-09-05T17:19:38.245Z",
  "networkType": "ethereum",
  "devdoc": {
    "kind": "dev",
    "methods": {},
    "version": 1
  },
  "userdoc": {
    "kind": "user",
    "methods": {},
    "version": 1
  }
}