{
  "contractName": "FaucetTest",
  "abi": [
    {
      "inputs": [],
      "name": "counter",
      "outputs": [
        {
          "internalType": "int256",
          "name": "",
          "type": "int256"
        }
      ],
      "stateMutability": "view",
      "type": "function",
      "constant": true
    },
    {
      "inputs": [],
      "name": "funds",
      "outputs": [
        {
          "internalType": "uint256",
          "name": "",
          "type": "uint256"
        }
      ],
      "stateMutability": "view",
      "type": "function",
      "constant": true
    }
  ],
  "bytecode": "0x60806040526103e86000557ffffffffffffffffffffffffffffffffffffffffffffffffffffffffffffffff660015534801561003a57600080fd5b5061010d8061004a6000396000f3fe6080604052348015600f57600080fd5b506004361060325760003560e01c806361bc221a146037578063c89f2ce4146051575b600080fd5b603d606b565b60405160489190608e565b60405180910390f35b60576071565b6040516062919060be565b60405180910390f35b60015481565b60005481565b6000819050919050565b6088816077565b82525050565b600060208201905060a160008301846081565b92915050565b6000819050919050565b60b88160a7565b82525050565b600060208201905060d1600083018460b1565b9291505056fea26469706673582212206e5d9fcb4602f2900471c8aceaf03913705243306f29d6682d9bdd034b7fdbeb64736f6c634300080f0033",
  "immutableReferences": {},
  "source": "// SPDX-License-Identifier: MIT\r\npragma solidity >=0.4.22 <0.9.0;\r\n\r\ncontract FaucetTest {\r\n    uint public funds = 1000;\r\n    int public counter = -10;\r\n}",
  "sourcePath": "D:\\Edu\\IIT\\Y5\\FYP\\Blockchain\\Practice\\faucet\\contracts\\FaucetTest.sol",
  "compiler": {
    "name": "solc",
    "version": "0.8.15+commit.e14f2714.Emscripten.clang"
  },
  "schemaVersion": "3.4.8",
  "updatedAt": "2022-09-05T17:19:40.244Z",
  "networkType": "ethereum",
  "devdoc": {
    "kind": "dev",
    "methods": {},
    "version": 1
  },
  "userdoc": {
    "kind": "user",
    "methods": {},
    "version": 1
  }
}