{
  "contractName": "Test",
  "abi": [
    {
      "inputs": [
        {
          "internalType": "uint256",
          "name": "testNum",
          "type": "uint256"
        }
      ],
      "name": "test",
      "outputs": [
        {
          "internalType": "uint256",
          "name": "",
          "type": "uint256"
        }
      ],
      "stateMutability": "pure",
      "type": "function"
    }
  ],
  "bytecode": "0x608060405234801561001057600080fd5b50610122806100206000396000f3fe6080604052348015600f57600080fd5b506004361060285760003560e01c806329e99f0714602d575b600080fd5b60436004803603810190603f9190609e565b6057565b604051604e919060d3565b60405180910390f35b600060046040515050819050919050565b600080fd5b6000819050919050565b607e81606d565b8114608857600080fd5b50565b6000813590506098816077565b92915050565b60006020828403121560b15760b06068565b5b600060bd84828501608b565b91505092915050565b60cd81606d565b82525050565b600060208201905060e6600083018460c6565b9291505056fea26469706673582212204bb6bb49780148333b3b9c54ab9a1de12760b44f3b92e348affc5ff165f5c54064736f6c634300080f0033",
  "immutableReferences": {},
  "source": "// SPDX-License-Identifier: MIT\r\npragma solidity >=0.4.22 <0.9.0;\r\n\r\ncontract Test {\r\n\r\n    function test(uint testNum) external pure returns (uint) {\r\n\r\n        assembly {\r\n            let _num := 4\r\n            let _fmp := mload(0x40)\r\n        }\r\n\r\n        return testNum;\r\n    }\r\n}",
  "sourcePath": "D:\\Edu\\IIT\\Y5\\FYP\\Blockchain\\Practice\\faucet\\contracts\\Test.sol",
  "compiler": {
    "name": "solc",
    "version": "0.8.15+commit.e14f2714.Emscripten.clang"
  },
  "schemaVersion": "3.4.8",
  "updatedAt": "2022-09-05T17:19:34.151Z",
  "devdoc": {
    "kind": "dev",
    "methods": {},
    "version": 1
  },
  "userdoc": {
    "kind": "user",
    "methods": {},
    "version": 1
  }
}